:020000040800F2
:1000000068060020290200083102000833020008B7
:10001000350200083702000839020008000000001D
:100020000000000000000000000000003B0200088B
:100030003D020008000000003F02000841020008E5
:10004000430200084302000843020008430200087C
:10005000430200084302000843020008430200086C
:10006000430200084302000843020008430200085C
:10007000430200084302000843020008430200084C
:10008000430200084302000843020008430200083C
:10009000430200084302000843020008430200082C
:1000A000430200084302000843020008430200081C
:1000B000430200084302000843020008430200080C
:1000C00043020008430200084302000843020008FC
:1000D00043020008430200084302000843020008EC
:1000E00043020008430200084302000843020008DC
:1000F00043020008430200084302000843020008CC
:1001000043020008430200084302000843020008BB
:1001100043020008430200084302000843020008AB
:10012000430200084302000843020008430200089B
:10013000430200084302000843020008430200088B
:10014000430200084302000843020008430200087B
:10015000430200084302000843020008430200086B
:10016000430200084302000843020008430200085B
:10017000430200084302000843020008430200084B
:10018000430200084302000800F002F800F03CF8C7
:100190000AA090E8000C82448344AAF10107DA45E2
:1001A00001D100F031F8AFF2090EBAE80F0013F0F8
:1001B000010F18BFFB1A43F00103184708040000A1
:1001C00028040000103A24BF78C878C1FAD8520732
:1001D00024BF30C830C144BF04680C6070470000C1
:1001E0000023002400250026103A28BF78C1FBD840
:1001F000520728BF30C148BF0B6070471FB500F0E1
:10020000DBF91FBD10B510BD00F031F81146FFF746
:10021000F5FF00F011F900F04FF803B4FFF7F2FF1B
:1002200003BC00F057F80000094880470948004720
:10023000FEE7FEE7FEE7FEE7FEE7FEE7FEE7FEE796
:10024000FEE7FEE704480549054A064B70470000F3
:10025000D10300088901000868000020680600201A
:10026000680200206802002070477047704775469A
:1002700000F02CF8AE4605006946534620F0070012
:10028000854618B020B5FFF7DDFFBDE820404FF0F0
:1002900000064FF000074FF000084FF0000B21F070
:1002A0000701AC46ACE8C009ACE8C009ACE8C0093D
:1002B000ACE8C0098D46704710B50446AFF3008026
:1002C0002046BDE81040FFF7A8BF00000048704777
:1002D0000400002001491820ABBEFEE72600020002
:1002E000704700000CB50020019000903448006871
:1002F00040F480303249086000BF3148006800F4A3
:10030000003000900198401C0190009818B90198A5
:10031000B0F5A04FF1D12A48006800F4003010B1C8
:100320000120009001E0002000900098012846D1B3
:1003300023484030006840F0805021494031086037
:100340002048006840F440401E4908601C480830BE
:1003500000681B49083108600846006840F4004006
:1003600008600846006840F4A05008601648091F5D
:100370000860081F006840F08070091F086000BF17
:100380000F48006800F000700028F9D040F20570B6
:100390000E4908600A480830006820F00300084948
:1003A000083108600846006840F00200086000BF9D
:1003B00003480830006800F00C000828F8D10CBD94
:1003C000003802400070004019544007003C0240D1
:1003D00010B51548006840F47000134908601348D0
:1003E000006840F001001149086000200F49083101
:1003F00008600E4800680E4908400C4908600D4826
:10040000091D0860081F006820F48020091F08608B
:10041000002006490C310860FFF764FF4FF00060D0
:1004200001498039086010BD88ED00E000380240C5
:10043000FFFFF6FE103000245A48006840F0080024
:10044000584908605848006840F0AA40564908607A
:100450000020091D0860091D0860A1E052481830FD
:10046000006840F4004050491831086000204F49AE
:10047000086004E04D480068401C4C4908604B4847
:1004800000684B498842F5DB47481830006840F067
:10049000004045491831086000204449086004E0E4
:1004A00042480068401C4149086040480068414992
:1004B0008842F5DB3C481830006840F480403A49F7
:1004C0001831086000203949086004E037480068A6
:1004D000401C364908603548006835498842F5DBDC
:1004E00031481830006840F080402F4918310860CA
:1004F00000202E49086004E02C480068401C2B496D
:1005000008602A4800682A498842F5DB26481830E6
:10051000006840F400502449183108600020234945
:10052000086004E021480068401C204908601F481A
:1005300000681F498842F5DB1B481830006840F00E
:10054000005019491831086000201849086004E07B
:1005500016480068401C1549086014480068144992
:100560008842F5DB10481830006840F480500E498E
:100570001831086000200D49086004E00B4800684D
:10058000401C0A4908600948006809498842F5DBAF
:1005900005481830006840F0805003491831086061
:1005A0005CE7000030380240000C024000000020F0
:1005B00020A1070080841E004FF04070E1EE100A79
:1005C00070470000E405000800000020040000005F
:1005D000C4010008E80500080400002064060000CB
:0805E000E0010008000000002A
:0400000508000229C4
:00000001FF
