:020000040800F2
:1000000068060020290200083102000833020008B7
:10001000350200083702000839020008000000001D
:100020000000000000000000000000003B0200088B
:100030003D020008000000003F02000841020008E5
:10004000430200084302000843020008430200087C
:10005000430200084302000843020008430200086C
:10006000430200084302000843020008430200085C
:10007000430200084302000843020008430200084C
:10008000430200084302000843020008430200083C
:10009000430200084302000843020008430200082C
:1000A000430200084302000843020008430200081C
:1000B000430200084302000843020008430200080C
:1000C00043020008430200084302000843020008FC
:1000D00043020008430200084302000843020008EC
:1000E00043020008430200084302000843020008DC
:1000F00043020008430200084302000843020008CC
:1001000043020008430200084302000843020008BB
:1001100043020008430200084302000843020008AB
:10012000430200084302000843020008430200089B
:10013000430200084302000843020008430200088B
:10014000430200084302000843020008430200087B
:10015000430200084302000843020008430200086B
:10016000430200084302000843020008430200085B
:10017000430200084302000843020008430200084B
:10018000430200084302000800F002F800F03CF8C7
:100190000AA090E8000C82448344AAF10107DA45E2
:1001A00001D100F031F8AFF2090EBAE80F0013F0F8
:1001B000010F18BFFB1A43F0010318472404000085
:1001C00044040000103A24BF78C878C1FAD8520716
:1001D00024BF30C830C144BF04680C6070470000C1
:1001E0000023002400250026103A28BF78C1FBD840
:1001F000520728BF30C148BF0B6070471FB500F0E1
:10020000E9F91FBD10B510BD00F031F81146FFF738
:10021000F5FF00F011F900F04FF803B4FFF7F2FF1B
:1002200003BC00F057F80000094880470948004720
:10023000FEE7FEE7FEE7FEE7FEE7FEE7FEE7FEE796
:10024000FEE7FEE704480549054A064B70470000F3
:10025000D10300088901000868000020680600201A
:10026000680200206802002070477047704775469A
:1002700000F02CF8AE4605006946534620F0070012
:10028000854618B020B5FFF7DDFFBDE820404FF0F0
:1002900000064FF000074FF000084FF0000B21F070
:1002A0000701AC46ACE8C009ACE8C009ACE8C0093D
:1002B000ACE8C0098D46704710B50446AFF3008026
:1002C0002046BDE81040FFF7A8BF00000048704777
:1002D0000400002001491820ABBEFEE72600020002
:1002E000704700000CB50020019000903448006871
:1002F00040F480303249086000BF3148006800F4A3
:10030000003000900198401C0190009818B90198A5
:10031000B0F5A04FF1D12A48006800F4003010B1C8
:100320000120009001E0002000900098012846D1B3
:1003300023484030006840F0805021494031086037
:100340002048006840F440401E4908601C480830BE
:1003500000681B49083108600846006840F4004006
:1003600008600846006840F4A05008601648091F5D
:100370000860081F006840F08070091F086000BF17
:100380000F48006800F000700028F9D040F20570B6
:100390000E4908600A480830006820F00300084948
:1003A000083108600846006840F00200086000BF9D
:1003B00003480830006800F00C000828F8D10CBD94
:1003C000003802400070004019544007003C0240D1
:1003D00010B51548006840F47000134908601348D0
:1003E000006840F001001149086000200F49083101
:1003F00008600E4800680E4908400C4908600D4826
:10040000091D0860081F006820F48020091F08608B
:10041000002006490C310860FFF764FF4FF00060D0
:1004200001498039086010BD88ED00E000380240C5
:10043000FFFFF6FE103000246148006840F008001D
:100440005F4908605F48006840F0AA405D49086065
:100450000020091D0860091D0860AFE059481830E8
:10046000006840F4004057491831086000205649A0
:10047000086004E054480068401C53490860524832
:10048000006852498842F5DB4E481830006840F059
:1004900000404C491831086000204B49086004E0D6
:1004A00049480068401C4849086047480068484976
:1004B0008842F5DB43481830006840F480404149E9
:1004C0001831086000204049086004E03E48006898
:1004D000401C3D4908603C4800683C498842F5DBC7
:1004E00038481830006840F08040364918310860BC
:1004F00000203549086004E033480068401C324958
:1005000008603148006831498842F5DB2D481830D1
:10051000006840F400502B491831086000202A4937
:10052000086004E028480068401C27490860264805
:10053000006826498842F5DB22481830006840F000
:10054000005020491831086000201F49086004E06D
:100550001D480068401C1C4908601B4800681B4976
:100560008842F5DB17481830006840F48050154980
:100570001831086000201449086004E0124800683F
:10058000401C114908601048006810498842F5DB9A
:100590000C481830006840F080500A491831086053
:1005A00000200949086004E007480068401C06492B
:1005B00008600548006805498842F5DB4EE7000001
:1005C00030380240000C02400000002020A107004B
:1005D00080841E004FF04070E1EE100A704700006A
:1005E000000600080000002004000000C40100080C
:1005F000040600080400002064060000E001000872
:0406000000000000F6
:0400000508000229C4
:00000001FF
