:020000040800F2
:1000000070070020E9020008F1020008F30200086E
:10001000F5020008F7020008F902000800000000DD
:10002000000000000000000000000000290200089D
:10003000FD0200080000000085020008BD04000861
:100040000303000803030008030300080303000878
:100050000303000803030008030300080303000868
:100060000303000803030008030300080303000858
:100070000303000803030008030300080303000848
:100080000303000803030008030300080303000838
:100090000303000803030008030300080303000828
:1000A0000303000803030008030300080303000818
:1000B0000303000803030008030300080303000808
:1000C00003030008030300080303000803030008F8
:1000D00003030008030300080303000803030008E8
:1000E00003030008030300080303000803030008D8
:1000F00003030008030300080303000803030008C8
:1001000003030008030300080303000803030008B7
:1001100003030008030300080303000803030008A7
:100120000303000803030008030300080303000897
:100130000303000803030008030300080303000887
:100140000303000803030008030300080303000877
:100150000303000803030008030300080303000867
:100160000303000803030008030300080303000857
:100170000303000803030008030300080303000847
:10018000030300080303000800F002F800F03CF845
:100190000AA090E8000C82448344AAF10107DA45E2
:1001A00001D100F031F8AFF2090EBAE80F0013F0F8
:1001B000010F18BFFB1A43F0010318475009000054
:1001C00070090000103A24BF78C878C1FAD85207E5
:1001D00024BF30C830C144BF04680C6070470000C1
:1001E0000023002400250026103A28BF78C1FBD840
:1001F000520728BF30C148BF0B6070471FB500F0E1
:100200007FFC1FBD10B510BD00F091F81146FFF73F
:10021000F5FF00F0A1F900F0AFF803B4FFF7F2FF2B
:1002200003BC00F0B7F800002C4B19680868B0E870
:10023000F04F80F30988BFF36F8F4FF0000080F319
:10024000118870470000000008480068006880F3CB
:1002500008884FF0000080F3148862B661B6BFF3DF
:100260004F8FBFF36F8F00DF00BF00BF08ED00E0CE
:10027000DFF80C00016841F470010160704700BFB5
:1002800088ED00E0EFF30980BFF36F8F134B1A681E
:100290001EF0100F08BF20ED108A20E9F04F10600B
:1002A00009B44FF0500080F31188BFF34F8FBFF3B4
:1002B0006F8F00F097FA4FF0000080F3118809BCAF
:1002C00019680868B0E8F04F1EF0100F08BFB0ECD6
:1002D000108A80F30988BFF36F8F70470C000020ED
:1002E000EFF3058070470000094880470948004740
:1002F000FEE7FEE7FEE7FEE7FEE7FEE7FEE7FEE7D6
:10030000FEE7FEE704480549054A064B7047000032
:10031000F104000889010008700100207007002026
:1003200070030020700300207047704770477546C7
:1003300000F02CF8AE4605006946534620F0070051
:10034000854618B020B5FFF7DDFFBDE820404FF02F
:1003500000064FF000074FF000084FF0000B21F0AF
:100360000701AC46ACE8C009ACE8C009ACE8C0097C
:10037000ACE8C0098D46704710B50446AFF3008065
:100380002046BDE81040FFF748BF00000048704716
:100390001001002001491820ABBEFEE72600020034
:1003A000704700000848006840F0080006490860EF
:1003B0000648006840F0AA40044908600020091D72
:1003C0000860091D0860704730380240000C024088
:1003D0000CB50020019000903448006840F4803053
:1003E0003249086000BF3148006800F400300090D6
:1003F0000198401C0190009818B90198B0F5A04FE1
:10040000F1D12A48006800F4003010B101200090BA
:1004100001E0002000900098012846D12348403098
:10042000006840F080502149403108602048006851
:1004300040F440401E4908601C48083000681B49D1
:10044000083108600846006840F40040086008462B
:10045000006840F4A05008601648091F0860081F93
:10046000006840F08070091F086000BF0F480068F6
:1004700000F000700028F9D040F205700E490860C5
:100480000A480830006820F0030008490831086075
:100490000846006840F00200086000BF03480830CA
:1004A000006800F00C000828F8D10CBD00380240AC
:1004B0000070004019544007003C024010B500BFD6
:1004C000502080F31188BFF34F8FBFF36F8F00BFB1
:1004D00000F0EAF918B14FF080500449086000BFFD
:1004E000002080F3118800BF10BD000004ED00E083
:1004F00010B51548006840F47000134908601348AF
:10050000006840F001001149086000200F490831DF
:1005100008600E4800680E4908400C4908600D4804
:10052000091D0860081F006820F48020091F08606A
:10053000002006490C310860FFF74AFF4FF00060C9
:1005400001498039086010BD88ED00E000380240A4
:10055000FFFFF6FE10300024FFF724FF1DE00F48D8
:10056000006840F400400D4908600846006840F00B
:10057000804008604FF47A7000F0FEF80748006889
:1005800040F00040054908600846006840F480409B
:1005900008604FF47A7000F0EFF8E0E7180C0240C2
:1005A0002DE9F04105460E461C4807681C480068C6
:1005B000001D00F05BF850B91948006890F82C1045
:1005C0000120884017490968814316480160681C6A
:1005D00038B936B112480168091D134800F077F8A0
:1005E0001AE07C190E4800684460BC4207D20C48EF
:1005F0000168091D0D48006800F04FF80CE008483C
:100600000168091D0A48006800F047F809480068B9
:10061000844201D207480460BDE8F0812000002038
:100620000C00002024000020FC000020140000200A
:10063000100000203C0000200A490968096809B937
:10064000012100E0002121B14FF0FF31064A116085
:1006500006E004490968C968C868034A416811602E
:1006600070470000100000203C00002001460A698D
:10067000D1E901309860D1E901035860506888429F
:1006800001D188685060002008611068401E106029
:100690001068704700BFFEE7704710B502460B6850
:1006A0005C1C0CB9106907E002F1080000E040682A
:1006B000446824689C42FAD944684C604C68A16044
:1006C000886041600A611468641C146010BD42684F
:1006D0004A6093688B609368596091600861036811
:1006E0005B1C03607047000000BF502080F311883E
:1006F000BFF34F8FBFF36F8F00BF0E480068401CE1
:100700000C49086008460068012812D10A480068B0
:10071000C0B208B9012000E0002050B900BF50204D
:1007200080F31188BFF34F8FBFF36F8F00BF00BFFF
:10073000FEE770470000002004ED00E00D4800686F
:1007400050B900BF502080F31188BFF34F8FBFF323
:100750006F8F00BF00BFFEE706480068401E0549D6
:1007600008600846006820B9002080F3118800BFA7
:1007700000BF70470000002070B504460025D4B1CA
:100780001248006808B9012000E0002050B900BFFD
:10079000502080F31188BFF34F8FBFF36F8F00BFDE
:1007A00000BFFEE700F016F800212046FFF7F8FE34
:1007B00000F024F905463DB94FF080500449086027
:1007C000BFF34F8FBFF36F8F70BD00004400002058
:1007D00004ED00E002480068401C014908607047D1
:1007E0004400002070B52B48006818B101202A4948
:1007F00008604DE000202849086028480068046B24
:100800004FF0A5352068B0F1A53F0BD16068B0F17D
:10081000A53F07D1A068B0F1A53F03D1E068B0F1D2
:10082000A53F05D01D48016834310068FFF732FF4D
:100830001B480068B0FA80F0C0F11F0101EB810095
:10084000184A52F8200008B1012000E0002050B9F9
:1008500000BF502080F31188BFF34F8FBFF36F8F1D
:1008600000BF00BFFEE701EB81020E4B03EB8200ED
:1008700042685268426000F108024368934202D124
:100880004268526842604268D268044B1A6000BFF6
:1008900070BD000044000020300000200C0000204B
:1008A00024000020480000202DE9F0414FF000080E
:1008B0004748006800287CD146480068451C4548E8
:1008C000056015BB44480068006808B9012000E0D5
:1008D000002050B900BF502080F31188BFF34F8F24
:1008E000BFF36F8F00BF00BFFEE73B4807683B4880
:1008F0000068394908603948076039480068401C79
:1009000037490860FFF798FE00BF36480068854207
:100910003CD300BF30480068006808B9012000E0FF
:10092000002020B14FF0FF302E4908602DE02A480A
:100930000068C068C4686668B54202D2294806608B
:1009400023E0201DFFF792FEA06A18B104F1180001
:10095000FFF78CFE94F82C1001208840224909688A
:10096000084321490860E16A01EB81011F4A02EB5B
:100970008100211DFFF7ABFE1D49E06A0968C96AC5
:100980008842C7D34FF00108C4E700BF1848006889
:10099000C06A00EB8000154951F82000012801D9F8
:1009A0004FF001081348006808B9FFF775FE07E02B
:1009B000FFE710480068401C0E490860FFF76CFE16
:1009C0000D48006808B14FF001084046BDE8F081CD
:1009D000440000202000002010000020140000200F
:1009E000340000203C0000202400002048000020AB
:1009F0000C0000202C0000203000002070B50024E6
:100A000000263648006850B900BF502080F3118896
:100A1000BFF34F8FBFF36F8F00BF00BFFEE7FFF73D
:100A200063FE2E480068401E2C4908600846006896
:100A300000284FD12A48006800284BD024E02948DC
:100A4000C068C46804F11800FFF710FE201DFFF70E
:100A50000DFE94F82C1001208840234909680843B2
:100A600021490860E16A01EB8101204A02EB810023
:100A7000211DFFF72CFE1E49E06A0968C96A8842F9
:100A800002D301201B4908601648006808B90120FC
:100A900000E000200028D2D00CB1FFF7CDFD1648B1
:100AA000056865B100BFFFF7FFFE10B101201149D5
:100AB00008606D1E002DF6D100200F4908600D481A
:100AC000006838B1012630070C490860BFF34F8F2A
:100AD000BFF36F8FFFF732FE304670BD4400002039
:100AE0001C000020D400002024000020480000202A
:100AF0000C000020300000202C00002004ED00E05D
:100B00004FF04070E1EE100A704700002C0B000817
:100B10000000002048000000C4010008740B000819
:100B20004800002028070000E0010008AAAAAAAA9D
:100B300000000000000000000000000000000000B5
:100B400000000000000000000000000000000000A5
:100B50000000000000000000000000000000000095
:100B60000000000000000000000000000000000085
:040B70000000000081
:04000005080002E904
:00000001FF
