:020000040800F2
:1000000068070020E9020008F1020008F302000876
:10001000F5020008F7020008F902000800000000DD
:10002000000000000000000000000000290200089D
:10003000FD0200080000000085020008910400088D
:100040000303000803030008030300080303000878
:100050000303000803030008030300080303000868
:100060000303000803030008030300080303000858
:100070000303000803030008030300080303000848
:100080000303000803030008030300080303000838
:100090000303000803030008030300080303000828
:1000A0000303000803030008030300080303000818
:1000B0000303000803030008030300080303000808
:1000C00003030008030300080303000803030008F8
:1000D00003030008030300080303000803030008E8
:1000E00003030008030300080303000803030008D8
:1000F00003030008030300080303000803030008C8
:1001000003030008030300080303000803030008B7
:1001100003030008030300080303000803030008A7
:100120000303000803030008030300080303000897
:100130000303000803030008030300080303000887
:100140000303000803030008030300080303000877
:100150000303000803030008030300080303000867
:100160000303000803030008030300080303000857
:100170000303000803030008030300080303000847
:10018000030300080303000800F002F800F03CF845
:100190000AA090E8000C82448344AAF10107DA45E2
:1001A00001D100F031F8AFF2090EBAE80F0013F0F8
:1001B000010F18BFFB1A43F00103184700070000A6
:1001C00020070000103A24BF78C878C1FAD8520737
:1001D00024BF30C830C144BF04680C6070470000C1
:1001E0000023002400250026103A28BF78C1FBD840
:1001F000520728BF30C148BF0B6070471FB500F0E1
:1002000057FB1FBD10B510BD00F091F81146FFF768
:10021000F5FF00F091F900F0AFF803B4FFF7F2FF3B
:1002200003BC00F0B7F800002C4B19680868B0E870
:10023000F04F80F30988BFF36F8F4FF0000080F319
:10024000118870470000000008480068006880F3CB
:1002500008884FF0000080F3148862B661B6BFF3DF
:100260004F8FBFF36F8F00DF00BF00BF08ED00E0CE
:10027000DFF80C00016841F470010160704700BFB5
:1002800088ED00E0EFF30980BFF36F8F134B1A681E
:100290001EF0100F08BF20ED108A20E9F04F10600B
:1002A00009B44FF0500080F31188BFF34F8FBFF3B4
:1002B0006F8F00F0F1F94FF0000080F3118809BC56
:1002C00019680868B0E8F04F1EF0100F08BFB0ECD6
:1002D000108A80F30988BFF36F8F704700000020F9
:1002E000EFF3058070470000094880470948004740
:1002F000FEE7FEE7FEE7FEE7FEE7FEE7FEE7FEE7D6
:10030000FEE7FEE704480549054A064B7047000032
:10031000C504000889010008680100206807002062
:1003200068030020680300207047704770477546D7
:1003300000F02CF8AE4605006946534620F0070051
:10034000854618B020B5FFF7DDFFBDE820404FF02F
:1003500000064FF000074FF000084FF0000B21F0AF
:100360000701AC46ACE8C009ACE8C009ACE8C0097C
:10037000ACE8C0098D46704710B50446AFF3008065
:100380002046BDE81040FFF748BF00000048704716
:100390000401002001491820ABBEFEE72600020040
:1003A000704700000CB500200190009034480068B0
:1003B00040F480303249086000BF3148006800F4E2
:1003C000003000900198401C0190009818B90198E5
:1003D000B0F5A04FF1D12A48006800F4003010B108
:1003E0000120009001E0002000900098012846D1F3
:1003F00023484030006840F0805021494031086077
:100400002048006840F440401E4908601C480830FD
:1004100000681B49083108600846006840F4004045
:1004200008600846006840F4A05008601648091F9C
:100430000860081F006840F08070091F086000BF56
:100440000F48006800F000700028F9D040F20570F5
:100450000E4908600A480830006820F00300084987
:10046000083108600846006840F00200086000BFDC
:1004700003480830006800F00C000828F8D10CBDD3
:10048000003802400070004019544007003C024010
:1004900010B500BF502080F31188BFF34F8FBFF31A
:1004A0006F8F00BF00F05AF918B14FF08050044927
:1004B000086000BF002080F3118800BF10BD00005D
:1004C00004ED00E010B51548006840F470001349D1
:1004D00008601348006840F00100114908600020DE
:1004E0000F49083108600E4800680E4908400C4961
:1004F00008600D48091D0860081F006820F480206E
:10050000091F0860002006490C310860FFF74AFF08
:100510004FF0006001498039086010BD88ED00E0AF
:1005200000380240FFFFF6FE10300024002100E0FA
:10053000491C8142FCD370473548006840F00800F0
:10054000334908603348006840F0AA4031490860E8
:100550000020091D0860091D086057E02D4818306B
:10056000006840F400402B49183108602A48FFF722
:10057000DDFF28481830006840F000402549183158
:1005800008602548FFF7D2FF22481830006840F481
:1005900080402049183108601F48FFF7C7FF1D48F9
:1005A0001830006840F080401A49183108601A4835
:1005B000FFF7BCFF17481830006840F40050154999
:1005C000183108601448FFF7B1FF1248183000686E
:1005D00040F000500F49183108600F48FFF7A6FFA0
:1005E0000C481830006840F480500A4918310860FF
:1005F0000948FFF79BFF07481830006840F080501B
:100600000449183108600448FFF790FFA6E700008E
:1006100030380240000C024080841E000A490968FC
:10062000096809B9012100E0002121B14FF0FF3133
:10063000064A116006E004490968C968C868034AA7
:100640004168116070470000040000203000002065
:1006500001460A69D1E901309860D1E90103586087
:100660005068884201D18868506000200861106895
:10067000401E10601068704700BFFEE77047426878
:100680004A6093688B609368596091600861036861
:100690005B1C03607047000070B52B48006818B100
:1006A00001202A4908604DE00020284908602848B8
:1006B0000068046B4FF0A5352068B0F1A53F0BD161
:1006C0006068B0F1A53F07D1A068B0F1A53F03D1A4
:1006D000E068B0F1A53F05D01D48016834310068DD
:1006E000FFF7CAFF1B480068B0FA80F0C0F11F0195
:1006F00001EB8100184A52F8200008B1012000E007
:10070000002050B900BF502080F31188BFF34F8FF5
:10071000BFF36F8F00BF00BFFEE701EB81020E4BFE
:1007200003EB820042685268426000F108024368AD
:10073000934202D14268526842604268D268044BD8
:100740001A6000BF70BD00003800002024000020A7
:1007500000000020180000203C0000202DE9F0419E
:100760004FF000084748006800287CD146480068E0
:10077000451C4548056015BB44480068006808B939
:10078000012000E0002050B900BF502080F3118804
:10079000BFF34F8FBFF36F8F00BF00BFFEE73B4833
:1007A00007683B480068394908603948076039489C
:1007B0000068401C37490860FFF730FF00BF36482B
:1007C000006885423CD300BF30480068006808B923
:1007D000012000E0002020B14FF0FF302E490860DA
:1007E0002DE02A480068C068C4686668B54202D235
:1007F0002948066023E0201DFFF72AFFA06A18B1F0
:1008000004F11800FFF724FF94F82C100120884011
:1008100022490968084321490860E16A01EB810126
:100820001F4A02EB8100211DFFF729FF1D49E06AE5
:100830000968C96A8842C7D34FF00108C4E700BFFE
:1008400018480068C06A00EB8000154951F8200084
:10085000012801D94FF001081348006808B9FFF7D3
:100860000DFF07E0FFE710480068401C0E490860D4
:10087000FFF704FF0D48006808B14FF0010840463B
:10088000BDE8F081380000201400002004000020A2
:100890000800002028000020300000201800002060
:1008A0003C00002000000020200000202400002048
:1008B0004FF04070E1EE100A70470000DC080008BD
:1008C000000000203C000000C401000818090008D6
:1008D0003C0000202C070000E001000800000000A0
:1008E0000000000000000000000000000000000008
:1008F00000000000000000000000000000000000F8
:1009000000000000000000000000000000000000E7
:080910000000000000000000DF
:04000005080002E904
:00000001FF
