:020000040800F2
:10000000F8330120E9020008F1020008F3020008B9
:10001000F5020008F7020008F902000800000000DD
:10002000000000000000000000000000290200089D
:10003000FD02000800000000850200084D060008CF
:100040000303000803030008030300080303000878
:100050000303000803030008030300080303000868
:100060000303000803030008030300080303000858
:100070000303000803030008030300080303000848
:100080000303000803030008030300080303000838
:100090000303000803030008030300080303000828
:1000A0000303000803030008030300080303000818
:1000B0000303000803030008030300080303000808
:1000C00003030008030300080303000803030008F8
:1000D00003030008030300080303000803030008E8
:1000E00003030008030300080303000803030008D8
:1000F00003030008030300080303000803030008C8
:1001000003030008030300080303000803030008B7
:1001100003030008030300080303000803030008A7
:100120000303000803030008030300080303000897
:100130000303000803030008030300080303000887
:100140000303000803030008030300080303000877
:100150000303000803030008030300080303000867
:100160000303000803030008030300080303000857
:100170000303000803030008030300080303000847
:10018000030300080303000800F002F800F03CF845
:100190000AA090E8000C82448344AAF10107DA45E2
:1001A00001D100F031F8AFF2090EBAE80F0013F0F8
:1001B000010F18BFFB1A43F0010318476820000025
:1001C00088200000103A24BF78C878C1FAD85207B6
:1001D00024BF30C830C144BF04680C6070470000C1
:1001E0000023002400250026103A28BF78C1FBD840
:1001F000520728BF30C148BF0B6070471FB502F0DF
:100200000BF81FBD10B510BD00F059F91146FFF7EE
:10021000F5FF00F097FA00F077F903B4FFF7F2FF6B
:1002200003BC00F07FF900002C4B19680868B0E8A7
:10023000F04F80F30988BFF36F8F4FF0000080F319
:10024000118870470000000008480068006880F3CB
:1002500008884FF0000080F3148862B661B6BFF3DF
:100260004F8FBFF36F8F00DF00BF00BF08ED00E0CE
:10027000DFF80C00016841F470010160704700BFB5
:1002800088ED00E0EFF30980BFF36F8F134B1A681E
:100290001EF0100F08BF20ED108A20E9F04F10600B
:1002A00009B44FF0500080F31188BFF34F8FBFF3B4
:1002B0006F8F01F033F94FF0000080F3118809BC13
:1002C00019680868B0E8F04F1EF0100F08BFB0ECD6
:1002D000108A80F30988BFF36F8F704714000020E5
:1002E000EFF3058070470000094880470948004740
:1002F000FEE7FEE7FEE7FEE7FEE7FEE7FEE7FEE7D6
:10030000FEE7FEE704480549054A064B7047000032
:100310008106000889010008F82D0120F83301202A
:10032000F82F0120F82F0120032A40F2308010F02E
:10033000030C00F0158011F8013BBCF1020F624480
:1003400098BF11F801CB00F8013B38BF11F8013B11
:10035000A2F1040298BF00F801CB38BF00F8013BBE
:1003600011F0030300F05780083AC0F0088051F8FC
:10037000043B083A51F804CBA0E80810F5E7121D39
:100380005CBF51F8043B40F8043BAFF30080D20758
:1003900024BF11F8013B11F801CB48BF11F8012B24
:1003A00024BF00F8013B00F801CB48BF00F8012B47
:1003B000704702F0FF0343EA032242EA024200F0E0
:1003C0005EB84FF0000200B51346944696462039B9
:1003D00022BFA0E80C50A0E80C50B1F12001BFF4FE
:1003E000F7AF090728BFA0E80C5048BF0CC05DF864
:1003F00004EB890028BF40F8042B08BF704748BFB2
:1004000020F8022B11F0804F18BF00F8012B704725
:1004100070477047704710B5203AC0F00B80B1E8C4
:100420001850203AA0E81850B1E81850A0E8185029
:10043000BFF4F5AF5FEA027C24BFB1E81850A0E832
:10044000185044BF18C918C0BDE810405FEA827C4C
:1004500024BF51F8043B40F8043B08BF7047D20763
:1004600028BF31F8023B48BF11F8012B28BF20F804
:10047000023B48BF00F8012B70474FF000020429EF
:10048000C0F0128010F0030C3FF49DAFCCF1040CCF
:10049000BCF1020F18BF00F8012BA8BF20F8022BF7
:1004A000A1EB0C01FFF78FBF5FEAC17C24BF00F80E
:1004B000012B00F8012B48BF00F8012B704775464F
:1004C00000F02CF8AE4605006946534620F00700C0
:1004D000854618B020B5FFF715FFBDE820404FF066
:1004E00000064FF000074FF000084FF0000B21F01E
:1004F0000701AC46ACE8C009ACE8C009ACE8C009EB
:10050000ACE8C0098D46704710B50446AFF30080D3
:100510002046BDE81040FFF780BE0000004870474D
:10052000942D012001491820ABBEFEE726000200F1
:10053000704700000848006840F00800064908605D
:100540000648006840F0AA40044908600020091DE0
:100550000860091D0860704730380240000C0240F6
:100560000CB50020019000903448006840F48030C1
:100570003249086000BF3148006800F40030009044
:100580000198401C0190009818B90198B0F5A04F4F
:10059000F1D12A48006800F4003010B10120009029
:1005A00001E0002000900098012846D12348403007
:1005B000006840F0805021494031086020480068C0
:1005C00040F440401E4908601C48083000681B4940
:1005D000083108600846006840F40040086008469A
:1005E000006840F4A05008601648091F0860081F02
:1005F000006840F08070091F086000BF0F48006865
:1006000000F000700028F9D040F205700E49086033
:100610000A480830006820F00300084908310860E3
:100620000846006840F00200086000BF0348083038
:10063000006800F00C000828F8D10CBD003802401A
:100640000070004019544007003C024010B500BF44
:10065000502080F31188BFF34F8FBFF36F8F00BF1F
:1006600001F090FB18B14FF080500449086000BFC2
:10067000002080F3118800BF10BD000004ED00E0F1
:1006800010B51548006840F470001349086013481D
:10069000006840F001001149086000200F4908314E
:1006A00008600E4800680E4908400C4908600D4873
:1006B000091D0860081F006820F48020091F0860D9
:1006C000002006490C310860FFF74AFF4FF0006038
:1006D00001498039086010BD88ED00E00038024013
:1006E000FFFFF6FE1030002413E00A48006840F4D3
:1006F0000040084908604FF47A7000F041FE054858
:10070000006840F00040034908604FF47A7000F040
:1007100037FEEAE7180C024011E00948006840F093
:10072000804007490860642000F02AFE0448006801
:1007300040F4804002490860642000F021FEECE7AC
:10074000180C02401CB5FFF7F5FE002001210346FE
:100750002022CDE9001009A10B4801F0CDFA0020BC
:10076000012103462022CDE9001008A10A4801F02A
:10077000C3FA00F081FE00BFFEE700004C454420B4
:10078000424C494E4B310000E90600084C454420DC
:10079000424C494E4B320000190700082DE9F04148
:1007A00005460E461C4807681C480068001D00F0FE
:1007B000BBFC50B91948006890F82C100120884003
:1007C00017490968814316480160681C38B936B179
:1007D00012480168091D134800F0EAFC1AE07C1970
:1007E0000E4800684460BC4207D20C480168091DED
:1007F0000D48006800F0C2FC0CE008480168091DC3
:100800000A48006800F0BAFC09480068844201D236
:1008100007480460BDE8F081280000201400002093
:100820002C000020582D01201C0000201800002062
:100830004400002010B5044600F0C6FC24480068BF
:10084000401C234908602348006840B921480460DF
:100850000846006801280DD100F09AF90AE01E4808
:10086000006838B91B480068C06AE16A884201D84C
:100870001848046019480068401C18490860084678
:100880000068206494F82C100120884014490968FD
:10089000084313490860E16A01EB8101114A02EB48
:1008A0008100211D00F084FC00F0B8FC0A480068BB
:1008B00068B108480068C06AE16A884207D24FF010
:1008C000805009490860BFF34F8FBFF36F8F10BD91
:1008D00024000020140000203000002040000020F0
:1008E0002C000020A42C012004ED00E010B500F045
:1008F0006BFC10480068D0B90F4800F02FFC0F487F
:1009000000F02CFC0C480E4908600C480D490860AA
:1009100000220C210A2000F02BFF0649086008463F
:10092000006820B108A10348006800F0EDFC00F069
:1009300075FC10BD580000206C2D0120802D012079
:100940005000002054000020546D7251000000003F
:1009500010B516E000F038FC0C48C068C468201DD3
:1009600000F0E2FB0A480068401E09490860094897
:100970000068401E0749086000F050FC204600F067
:100980005FF8044800680028E4D110BD442D012020
:10099000240000202000002070B504460D46206C85
:1009A00070B1216CE0680144E160D4E90210884232
:1009B00001D32168E1602846226CE168FFF7B4FCAE
:1009C00070BD2DE9F04104460F4615464FF0000872
:1009D000A66B206C48B9206800282CD1A06801F0D3
:1009E0007BFA80460020A06025E07DB93946226C64
:1009F0006068FFF799FC216C606808446060D4E986
:100A00000101884217D32068606014E03946226CE7
:100A1000E068FFF789FC216CE068411AE160216819
:100A2000E068884203D2216CA068411AE160022D7F
:100A300001D106B1761E701CA0634046BDE8F0816E
:100A400010B50446206B00F007FC204600F004FCC3
:100A500010BD00000146084A126812680AB9012256
:100A600000E000220A600A6822B9034A1268D268CC
:100A7000106800E0002070475000002000BFFFF722
:100A800067FF07480068012807D94FF080500549E3
:100A90000860BFF34F8FBFF36F8F00F059FBEEE795
:100AA000A42C012004ED00E02DE9F04106460D469E
:100AB00017469846069C0DB9246000E02760E6635F
:100AC00025640121204600F081FE84F84C80BDE8B9
:100AD000F0812DE9F05F82460E4690469B460A9FC4
:100AE0000C9C4FEA8801A522206BFFF762FCA8F15D
:100AF0000100216B01EB800929F0070909F00700CB
:100B000008B9012000E0002050B900BF502080F358
:100B10001188BFF34F8FBFF36F8F00BF00BFFEE799
:100B200086B1002507E0715D04F134004155705D28
:100B300000B902E06D1C0A2DF5D300BF00213D2055
:100B4000015502E0002084F83400052F00D304276B
:100B5000E762A7640020E064201D00F00CFB04F1B4
:100B6000180000F008FB2461C7F10500A061646271
:100B70000020206584F854005A465146484600F04B
:100B8000BDFA20600B9808B10B980460BDE8F09F97
:100B900010B5002407E004EB84010F4A02EB81004A
:100BA00000F0DCFA641C052CF5D30C4800F0D6FAF2
:100BB0000B4800F0D3FA0B4800F0D0FA0A4800F0D6
:100BC000CDFA0A4800F0CAFA044809490860044806
:100BD0000849086010BD0000A42C0120082D012048
:100BE0001C2D0120302D0120442D0120582D0120E5
:100BF000180000201C0000202DE9F04104460D469D
:100C000016461F464FF0000865602461B5420CD8B7
:100C1000F01BA169884202D34FF0010811E0211DA9
:100C20000948006800F0AAFA0BE0BE4204D2BD42B7
:100C300002D34FF0010804E0211D0448006800F0D1
:100C40009DFA4046BDE8F08154000020500000208D
:100C500070B5054600F0B8FAA86B08B9012400E0A9
:100C6000002400F0DBFA204670BD70B5054600F0A8
:100C7000ABFAA86BE96B884201D1012400E00024A3
:100C800000F0CCFA204670BDF8B505460F461A486C
:100C90000068C068C468201D00F046FA94F8280077
:100CA00000F00400E8B1A06941192B463A462046FD
:100CB000FFF7A2FFD8B1002003462A460146009064
:100CC000204601F067FA064656B900BF502080F36F
:100CD0001188BFF34F8FBFF36F8F00BF00BFFEE7D8
:100CE00005E094F8280020F0010084F82800204650
:100CF000216A8847F8BD00005000002070B586B01A
:100D00008BE003980028FBDB059C606908B9012093
:100D100000E0002010B9201D00F006FA02A800F043
:100D2000DDF8054603980A2875D2DFE800F00905CA
:100D30000739416306083A4200BF00BF00BF00BF49
:100D400094F8280040F0010084F828000498A26973
:100D5000811803462A462046FFF74EFFF8B1204689
:100D6000216A884794F8280000F00400B8B10020F8
:100D700000900498A169421800231946204601F00A
:100D800009FA064656B900BF502080F31188BFF318
:100D90004F8FBFF36F8F00BF00BFFEE700BF3BE088
:100DA00000BF94F8280020F0010084F8280033E008
:100DB00000BF94F8280040F0010084F8280004984F
:100DC000A061A06908B1012000E0002050B900BF77
:100DD000502080F31188BFF34F8FBFF36F8F00BF98
:100DE00000BFFEE7A06941192B462A462046FFF7BF
:100DF00003FF11E094F8280000F0020018B9204623
:100E000000F02AFA05E094F8280020F0010084F8A8
:100E1000280001E0FFE700BF00BF002203A904484B
:100E2000006800F06FFE00287FF46BAF06B070BD65
:100E300058000020F8B505460C4600F067FB6846F0
:100E400000F04CF80646009820BB44B9B54206D8DD
:100E500001F0F2F831462846FFF716FF1CE03CB1DE
:100E60000E480068006808B9012000E00020044630
:100E7000A91B22460A48006800F05CFA01F0DCF881
:100E800050B94FF0805007490860BFF34F8FBFF350
:100E90006F8F01E001F0D0F8F8BD00005400002091
:100EA0005800002004ED00E00A490968096809B902
:100EB000012100E0002121B14FF0FF31064A11600D
:100EC00006E004490968C968C868034A41681160B6
:100ED00070470000180000204400002070B5044650
:100EE00000F04AFF054607480068854204D200F03A
:100EF0000BF80120206001E000202060014805601F
:100F0000284670BD600000202DE9F84334E02548F4
:100F10000068C068056823480068C068C468201D70
:100F200000F002F92046216A884794F8280000F072
:100F3000040008B3A0694619AE4207D9666024616F
:100F4000211D1848006800F019F915E0002003463B
:100F50002A4601460090204601F01CF9074657B981
:100F600000BF502080F31188BFF34F8FBFF36F8F06
:100F700000BF00BFFEE700BF0A480068006808B96C
:100F8000012000E000200028C1D00648D0F80080F1
:100F900005480068034908600348C0F80080BDE8C0
:100FA000F883000050000020540000200E48006824
:100FB000401C08B9012000E0002050B900BF5020BB
:100FC00080F31188BFF34F8FBFF36F8F00BF00BF57
:100FD000FEE700BF502080F31188BFF34F8FBFF3AF
:100FE0006F8F00BF00BFFEE70800002008B500BFFC
:100FF0006846FFF72FFD044620460099FFF71AFFC9
:10100000FFF77CFEF4E770B5044600F0DDF894F9D4
:10101000455010E0606A08B9012000E0002038B9AE
:1010200004F1240000F0BCFF18B100F0E3F900E087
:1010300003E0681E45B2002DECDC00BFFF2084F801
:10104000450000F0EBF800F0BFF894F9445010E0D0
:10105000206908B9012000E0002048B904F110001F
:1010600000F09EFF08B100F0C5F9681E45B200E02F
:1010700001E0002DECDC00BFFF2084F8440000F00C
:10108000CDF870BD70B50446002504F0070020B10E
:1010900004F00700C0F10800044400F037FA1348D8
:1010A000006820B9124820F0070010490860114874
:1010B000006820441049884210D20E48006820443D
:1010C0000C490968884209D9084800680949096833
:1010D00045180848006820440649086000F0ACFF45
:1010E0000DB900F036F8284670BD0000040000205D
:1010F0006C00002000000020F82B0100001F4FF0C2
:1011000080730360001F21F001030360001F054B83
:10111000036014380260001F6FF002030360203880
:1011200070470000AD0F000801460A69D1E901309F
:101130009860D1E9010358605068884201D18868FD
:101140005060002008611068401E106010687047F1
:10115000704700BFFEE700BFFEE7704700F10801DF
:1011600041604FF0FF31816000F10801C160016111
:1011700000210160704700210161704710B50246EF
:101180000B685C1C0CB9106907E002F1080000E074
:101190004068446824689C42FAD944684C604C68B2
:1011A000A160886041600A611468641C146010BD0D
:1011B00042684A6093688B609368596091600861E7
:1011C00003685B1C0360704700BF502080F31188E8
:1011D000BFF34F8FBFF36F8F00BF0E480068401CF6
:1011E0000C49086008460068012812D10A480068C6
:1011F000C0B208B9012000E0002050B900BF502063
:1012000080F31188BFF34F8FBFF36F8F00BF00BF14
:10121000FEE770470800002004ED00E00D4800687C
:1012200050B900BF502080F31188BFF34F8FBFF338
:101230006F8F00BF00BFFEE706480068401E0549EB
:1012400008600846006820B9002080F3118800BFBC
:1012500000BF70470800002008B9012100E000210C
:1012600051B900BF502181F31188BFF34F8FBFF3F5
:101270006F8F00BF00BFFEE7704700204FF0E021F6
:10128000086188614DF25400486107200861704789
:1012900070B5FFF725F80446102C16D304F1E020B2
:1012A00090F8F05315480078854201DB012000E0FA
:1012B000002050B900BF502080F31188BFF34F8F3A
:1012C000BFF36F8F00BF00BFFEE70D48006800F45A
:1012D000E0600C490968884201D8012000E0002044
:1012E00050B900BF502080F31188BFF34F8FBFF378
:1012F0006F8F00BF00BFFEE770BD00000C00002034
:101300000CED00E010000020024600200BE0084B2E
:1013100053F8303033B9064B43F8301003EBC003B9
:101320005A6002E0401C0828F1D300BF704700005B
:10133000642C01202DE9F04105460E4617462C4647
:10134000FFF742FF94F94400401C10B9002084F8D4
:10135000440094F94500401C10B9002084F8450071
:10136000FFF75CFFA06B28B93A46314604F1240030
:1013700000F062F82046FFF746FEBDE8F08100006D
:1013800070B504460025D4B11248006808B90120A0
:1013900000E0002050B900BF502080F31188BFF357
:1013A0004F8FBFF36F8F00BF00BFFEE700F0AEF8B6
:1013B00000212046FFF7F2F900F03EFE05463DB958
:1013C0004FF0805004490860BFF34F8FBFF36F8F19
:1013D00070BD00004C00002004ED00E003490968E6
:1013E0000160034909684160704700003C0000202B
:1013F00028000020012001490860704738000020C3
:1014000070B504460D4654B900BF502080F31188D2
:10141000BFF34F8FBFF36F8F00BF00BFFEE70548DC
:10142000016818312046FFF7A9FE01212846FFF781
:10143000B5F970BD1400002070B505460E4614467F
:1014400055B900BF502080F31188BFF34F8FBFF311
:101450006F8F00BF00BFFEE70648016818312846BD
:10146000FFF7A6FE0CB14FF0FF3621463046FFF7DE
:1014700095F970BD140000201CB51D4800210B46D5
:101480008222CDE900101BA11C4800F035FC044667
:10149000012C02D100F052FE0446012C15D100BFF0
:1014A000502080F31188BFF34F8FBFF36F8F00BFC1
:1014B0004FF0FF30124908600120124908600020F7
:1014C0001149086000F08CF810E0601C08B10120A0
:1014D00000E0002050B900BF502080F31188BFF316
:1014E0004F8FBFF36F8F00BF00BFFEE71CBD000032
:1014F0004800002049444C45000000007D0A0008D7
:10150000440000203000002028000020024800682D
:10151000401C0149086070474C00002070B52B4802
:10152000006818B101202A4908604DE000202849D0
:10153000086028480068046B4FF0A5352068B0F1BA
:10154000A53F0BD16068B0F1A53F07D1A068B0F10D
:10155000A53F03D1E068B0F1A53F05D01D48016863
:1015600034310068FFF7F7FD1B480068B0FA80F0DF
:10157000C0F11F0101EB8100184A52F8200008B1A8
:10158000012000E0002050B900BF502080F31188F6
:10159000BFF34F8FBFF36F8F00BF00BFFEE701EBBC
:1015A00081020E4B03EB820042685268426000F1F8
:1015B00008024368934202D142685268426042681E
:1015C000D268044B1A6000BF70BD00004C000020C0
:1015D00038000020140000202C000020A42C012042
:1015E0001CB55C4800685C49884201D0012000E0DD
:1015F000002050B900BF502080F31188BFF34F8FF7
:10160000BFF36F8F00BF00BFFEE75248006852492A
:10161000491E884201D0012000E0002050B900BFDF
:10162000502080F31188BFF34F8FBFF36F8F00BF3F
:1016300000BFFEE74949084600780190FF200A46AE
:1016400010700846007800909DF8000000F0F0004F
:101650009DF80020904201D1012000E0002050B907
:1016600000BF502080F31188BFF34F8FBFF36F8FFF
:1016700000BF00BFFEE79DF8000000F05000384AB0
:1016800010700720374A106009E036480068401E95
:10169000344A10609DF800004006000E00909DF84E
:1016A000000000F080008028EFD02E480068C0F1D4
:1016B0000700042801D1012000E0002050B900BF3C
:1016C000502080F31188BFF34F8FBFF36F8F00BF9F
:1016D00000BFFEE723480068C0F10700042801D1DD
:1016E000012000E0002050B900BF502080F3118895
:1016F000BFF34F8FBFF36F8F00BF00BFFEE71948E6
:1017000000680002174A10601046008800F4E0608C
:101710001060124A019810700E482030006840F4A2
:1017200070000C49203108600846006840F07040A5
:101730000860FFF7A2FD00200B490860FEF798FD46
:101740000A48006840F0404008490860FEF77CFD08
:1017500000201CBD00ED00E071C20F4100E400E07C
:101760000C000020100000200800002034EF00E0F2
:101770002DE9F84305460E4690460DB1012000E0E4
:10178000002050B900BF502080F31188BFF34F8F65
:10179000BFF36F8F00BF00BFFEE70EB9002701E067
:1017A00005FB06F707F15000FFF76CFC04464CB14F
:1017B000A14609F1500943464A463146284600945D
:1017C000FFF772F92046BDE8F883000070B50546C2
:1017D0000E462C4654B900BF502080F31188BFF349
:1017E0004F8FBFF36F8F00BF00BFFEE7FFF7ECFC2A
:1017F000D4E90F12206801FB0200A0600020A06362
:1018000020686060E06B401E226C216800FB0211C2
:10181000E160FF2084F8440084F845009EB9206907
:1018200008B9012000E00020A8B904F1100000F080
:10183000B7FB80B14FF0805009490860BFF34F8F6C
:10184000BFF36F8F07E004F11000FFF787FC04F18E
:101850002400FFF783FCFFF7E1FC012070BD0000CE
:1018600004ED00E02DE9FF4383B0064688461D469F
:101870004FF00009344654B900BF502080F311885E
:10188000BFF34F8FBFF36F8F00BF00BFFEE7B8F10C
:10189000000F01D1206C08B9012000E0002050B9F0
:1018A00000BF502080F31188BFF34F8FBFF36F8FBD
:1018B00000BF00BFFEE7022D02D1E06B012801D17D
:1018C000012000E0002050B900BF502080F31188B3
:1018D000BFF34F8FBFF36F8F00BF00BFFEE700F075
:1018E0003BFA08B9059808B9012000E0002050B97A
:1018F00000BF502080F31188BFF34F8FBFF36F8F6D
:1019000000BF00BFFEE700BFFFF75EFCA06BE16B0E
:10191000884201D3022D28D12A4641462046FFF7AE
:1019200050F80746606A08B9012000E0002068B955
:1019300004F1240000F034FB88B14FF080503249AC
:101940000860BFF34F8FBFF36F8F08E03FB14FF0D8
:1019500080502D490860BFF34F8FBFF36F8FFFF7A3
:101960005DFC012007B0BDE8F083059818B9FFF7CA
:1019700055FC0020F6E7B9F1000F04D101A8FFF7EC
:101980002DFD4FF00109FFF749FCFFF7BFFDFFF701
:101990001BFC94F94400401C10B9002084F844005A
:1019A00094F94500401C10B9002084F84500FFF769
:1019B00035FC05A901A800F059F9F0B92046FFF758
:1019C00054F9A0B104F110000599FFF719FD204664
:1019D000FFF719FB00F030FB002895D14FF0805045
:1019E00009490860BFF34F8FBFF36F8F8CE7204624
:1019F000FFF709FB00F020FB86E72046FFF703FB1B
:101A000000F01AFB0020ADE704ED00E02DE9F05FE7
:101A100007468A4690461E463C4654B900BF5020B1
:101A200080F31188BFF34F8FBFF36F8F00BF00BFEC
:101A3000FEE7BAF1000F01D1206C08B9012000E0E7
:101A4000002050B900BF502080F31188BFF34F8FA2
:101A5000BFF36F8F00BF00BFFEE7022E02D1E06B25
:101A6000012801D1012000E0002050B900BF502022
:101A700080F31188BFF34F8FBFF36F8F00BF00BF9C
:101A8000FEE7FFF705FC00BF5021EFF3118081F363
:101A90001188BFF34F8FBFF36F8F00BF0546A06B58
:101AA000E16B884201D3022E23D194F945B032462E
:101AB00051462046FEF785FF0BF1010088B9606AA8
:101AC00008B9012000E0002080B904F1240000F0F2
:101AD00067FA58B1B8F1000F08D00120C8F800002B
:101AE00004E00BF1010040B284F845004FF0010919
:101AF00001E04FF0000900BF85F3118800BF4846A0
:101B0000BDE8F09F2DE9F74183B005460E464FF042
:101B100000082C4654B900BF502080F31188BFF351
:101B20004F8FBFF36F8F00BF00BFFEE70EB9206C71
:101B300008B9012000E0002050B900BF502080F318
:101B40001188BFF34F8FBFF36F8F00BF00BFFEE759
:101B500000F002F908B9059808B9012000E000205A
:101B600050B900BF502080F31188BFF34F8FBFF3EF
:101B70006F8F00BF00BFFEE700BFFFF725FBA76B1D
:101B8000F7B131462046FEF707FF781EA0632069B3
:101B900008B9012000E0002060B904F1100000F055
:101BA000FFF938B14FF080502F490860BFF34F8FD5
:101BB000BFF36F8FFFF732FB012006B0BDE8F08165
:101BC000059818B9FFF72AFB0020F6E7B8F1000FD7
:101BD00004D101A8FFF702FC4FF00108FFF71EFB3C
:101BE000FFF794FCFFF7F0FA94F94400401C10B999
:101BF000002084F8440094F94500401C10B90020EE
:101C000084F84500FFF70AFB05A901A800F02EF8AB
:101C1000F0B92046FFF71CF8A0B104F124000599A3
:101C2000FFF7EEFB2046FFF7EEF900F005FA00287B
:101C3000A3D14FF080500C490860BFF34F8FBFF322
:101C40006F8F9AE72046FFF7DEF900F0F5F994E789
:101C50002046FFF7D8F900F0EFF92046FEF7F8FF2D
:101C600000288AD00020A8E704ED00E070B5054602
:101C70000C4655B900BF502080F31188BFF34F8F39
:101C8000BFF36F8F00BF00BFFEE754B900BF502005
:101C900080F31188BFF34F8FBFF36F8F00BF00BF7A
:101CA000FEE7FFF791FA124802686868131A206885
:101CB000401C08B9002617E00E49286809688842C8
:101CC00004D06868904201D801260DE0206898424F
:101CD00007D92068C01A20602846FFF77FFB00263E
:101CE00002E0002020600126FFF798FA304670BD20
:101CF000280000203C0000202DE9FF4F85B08046E1
:101D000089461746DDE912ABB800FFF7BBF9064676
:101D100056B15820FFF7B6F904460CB1266304E02B
:101D20003046FFF799FA00E000247CB10020CDE9AD
:101D300000ABCDE902403A4649464046089BFEF7D3
:101D4000C8FE2046FEF776FD012501E04FF0FF3585
:101D5000284609B0BDE8F08F0549096809B9012096
:101D600005E00449096809B9022000E00020704735
:101D7000300000204C000020014908687047000036
:101D8000280000202DE9F0414FF000084748006886
:101D900000287CD146480068451C4548056015BBB5
:101DA00044480068006808B9012000E0002050B9EC
:101DB00000BF502080F31188BFF34F8FBFF36F8FA8
:101DC00000BF00BFFEE73B4807683B480068394951
:101DD00008603948076039480068401C3749086086
:101DE000FFF762F800BF3648006885423CD300BF69
:101DF00030480068006808B9012000E0002020B1E8
:101E00004FF0FF302E4908602DE02A480068C06876
:101E1000C4686668B54202D22948066023E0201DE6
:101E2000FFF782F9A06A18B104F11800FFF77CF9F6
:101E300094F82C1001208840224909680843214960
:101E40000860E16A01EB81011F4A02EB8100211D5C
:101E5000FFF7AEF91D49E06A0968C96A8842C7D32D
:101E60004FF00108C4E700BF18480068C06A00EBE3
:101E70008000154951F82000012801D94FF00108D0
:101E80001348006808B9FFF768F907E0FFE7104852
:101E90000068401C0E490860FFF75FF90D480068B4
:101EA00008B14FF001084046BDE8F0814C00002029
:101EB00028000020180000201C0000203C0000200A
:101EC000440000202C000020A42C0120140000203D
:101ED000340000203800002070B505462C4600264E
:101EE000002D55D02B480068844201D1012000E02C
:101EF000002050B900BF502080F31188BFF34F8FEE
:101F0000BFF36F8F00BF00BFFEE7E06C50B900BFAA
:101F1000502080F31188BFF34F8FBFF36F8F00BF46
:101F200000BFFEE7E06C401EE064A16CE06A8842FE
:101F30002ED0E06C60BB201DFFF7F6F878B9E06AA0
:101F400000EB8000144951F8200040B994F82C109F
:101F50000120884011490968814310480160A06C44
:101F6000E062E06AC0F10500A06194F82C10012045
:101F700088400A490968084308490860E16A01EB9A
:101F80008101054A02EB8100211DFFF711F90126AD
:101F9000304670BD14000020A42C01202C0000202D
:101FA00070B50646F068C46854B900BF502080F38D
:101FB0001188BFF34F8FBFF36F8F00BF00BFFEE7E5
:101FC00004F11800FFF7B0F815480068A8B9201D03
:101FD000FFF7AAF894F82C100120884011490968ED
:101FE000084310490860E16A01EB81010E4A02EBE7
:101FF0008100211DFFF7DCF804E004F118010B4813
:10200000FFF7D6F80A49E06A0968C96A884204D924
:10201000012501200749086000E00025284670BD21
:102020004C0000202C000020A42C0120302D012089
:10203000140000203800002070B500240026364827
:10204000006850B900BF502080F31188BFF34F8F54
:10205000BFF36F8F00BF00BFFEE7FFF7B5F82E4854
:102060000068401E2C4908600846006800284FD1CF
:102070002A48006800284BD024E02948C068C4687A
:1020800004F11800FFF750F8201DFFF74DF894F801
:102090002C10012088402349096808432149086021
:1020A000E16A01EB8101204A02EB8100211DFFF76B
:1020B0007FF81E49E06A0968C96A884202D3012094
:1020C0001B4908601648006808B9012000E000209C
:1020D0000028D2D00CB1FEF7E7FE1648056865B1BE
:1020E00000BFFFF74FFE10B10120114908606D1EBF
:1020F000002DF6D100200F4908600D48006838B166
:10210000012630070C490860BFF34F8FBFF36F8F74
:10211000FFF784F8304670BD4C00002024000020FA
:10212000302D01202C000020A42C012014000020C0
:10213000380000203400002004ED00E01CB500242D
:10214000FEF7D4FB0E48006858B10E480221002368
:102150004FF48272CDE900100BA10D48FFF7CCFDC2
:10216000044654B900BF502080F31188BFF34F8F4D
:10217000BFF36F8F00BF00BFFEE720461CBD00000D
:10218000580000205C000020546D722053766300DC
:10219000ED0F00082DE9FE4304460D4616461F4686
:1021A000DDF828804FF0000954B900BF502080F3BB
:1021B0001188BFF34F8FBFF36F8F00BF00BFFEE7E3
:1021C0001448006810B3009501960294062D15DAA4
:1021D000FFF7C2FD022808D10023424669460D4898
:1021E0000068FFF73FFB814610E000231A4669466E
:1021F00008480068FFF736FB814607E000233A46AF
:10220000694604480068FFF701FC81464846BDE87E
:10221000FE830000580000204FF04070E1EE100AED
:102220007047000044220008000000206400000005
:10223000C4010008A82200086400002094330100B3
:10224000E00100080000000000000000AAAAAAAAFD
:10225000000000000000000000000000000000007E
:10226000000000000000000000000000000000006E
:10227000000000000000000000000000000000005E
:10228000000000000000000000000000000000004E
:10229000000000000000000000000000000000003E
:0822A000000000000000000036
:04000005080002E904
:00000001FF
